:020000040800F2
:1000000068700020A101000831500208754E0208F6
:100010002D5002080D5E0008553403080000000052
:100020000000000000000000000000000928030894
:10003000495E000800000000DD250308952803083C
:10004000BB010008BB010008BB010008BB010008A0
:10005000BB010008BB010008BB010008BB01000890
:10006000BB010008BB010008BB010008BB01000880
:10007000BB010008BB010008BB010008BB01000870
:10008000BB010008BB010008BB010008BB01000860
:10009000BB010008BB010008BB010008BB01000850
:1000A000BB010008BB010008BB010008BB01000840
:1000B000BB010008BB01000871290308BB0100084F
:1000C000BB010008BB010008BB010008BB01000820
:1000D000BB01000829330308BB010008853303086E
:1000E000BB010008BB010008BB010008BB01000800
:1000F000BB010008BB010008BB010008BB010008F0
:10010000BB010008BB01000881290308BB010008EE
:10011000BB010008BB0100084D2B0308BB01000810
:10012000BB010008BB010008BB010008BB010008BF
:10013000BB010008BB010008BB010008BB010008AF
:10014000BB010008BB010008BB010008BB0100089F
:10015000BB010008BB010008BB010008BB0100088F
:10016000BB010008BB010008BB010008BB0100087F
:10017000BB010008BB010008BB0100080000000033
:10018000BB010008BB010008DFF810D000F0A6F8A2
:1001900000480047A1500308AFF3008068700020BA
:1001A0000648804706480047FEE7FEE7FEE7FEE711
:1001B000FEE7FEE7FEE7FEE7FEE7FEE79D28030811
:1001C000890100082DE9F05F0546002092469B4614
:1001D00088460646814640241BE02846414647465D
:1001E000224600F06BF853465A46C01A914110D38C
:1001F00011461846224600F052F82D1A67EB010806
:100200004F4622460120002100F049F817EB000973
:100210004E41201EA4F10104DFDC484631462A4647
:100220004346BDE8F09FD2B201E000F8012B491E21
:10023000FBD270470022F6E710B513460A46044683
:100240001946FFF7F0FF204610BD421E12F8013F8D
:10025000002BFBD111F8013B02F8013B002BF9D137
:100260007047421C10F8011B0029FBD1801A70470F
:1002700010B5002200E0521C835C8C5CA34201D1CB
:10028000002BF8D1D8B2E1B2401A10BD034611F8E4
:10029000012B00F8012B002AF9D118467047202ABB
:1002A00004DB203A00FA02F1002070479140C2F1CD
:1002B000200320FA03F3194390407047202A04DBFF
:1002C000203A21FA02F00021704721FA02F3D040CF
:1002D000C2F120029140084319467047064C074D71
:1002E00006E0E06840F0010394E807009847103406
:1002F000AC42F6D3FFF74CFF94B00308B4B0030848
:1003000070B58C1810F8015B15F0070301D110F8D7
:10031000013B2A1106D110F8012B03E010F8016B04
:1003200001F8016B5B1EF9D12B0705D40023521E87
:100330000DD401F8013BFAE710F8013BCB1A921CEF
:1003400003E013F8015B01F8015B521EF9D5A142ED
:10035000D8D3002070BD10B5024600230020392AF2
:1003600003DCA2F13004E3B202E0A2F13704E3B20D
:1003700018460407200E392903DCA1F13004E3B24A
:1003800002E0A1F13704E3B2C418E0B210BD30B509
:1003900003460C4600210AB9002030BD002107E0C9
:1003A000585C655CA84201D00120F6E7481C81B288
:1003B0009142F5DB0020F0E73549097809B90121C0
:1003C00000E000210D2801D0012200E000221140B0
:1003D0000A2801D0012200E00022114061B1002171
:1003E0002B4A82F86510114691F86520491C885403
:1003F0000121274A11704AE025490978012921D1B4
:10040000234991F86510491C214A82F8651011466C
:1004100091F86520491C88540D2801D0012100E085
:1004200000210A2801D0012200E00022114051BB26
:100430000D2803D10221164A117028E00421144A24
:10044000117024E012490978022920D1104991F84D
:100450006510491C0E4A82F86510114691F8652016
:10046000491C88540A280FD10321094A11701146EA
:1004700091F86510491C82F865100022044991F832
:100480006530491CCA5402E00421014A11707047CA
:100490003025002000200349087081F8650048706D
:1004A000704700003025002030B58DB00024F7489B
:1004B0000078042805D10020F449087081F865000F
:1004C0007DE3F24800780328FAD10D22F0A1EF482D
:1004D000401CFFF75CFF002874D10C90EB48807B38
:1004E000302801DB012000E00020E849897B392920
:1004F00001DC012100E000210840E449897B412919
:1005000001DB012100E00021E04A927B462A01DC68
:10051000012200E0002211400843DC49C97B302958
:1005200001DB012100E00021D84AD27B392A01DC1D
:10053000012200E000221140D44AD27B412A01DB93
:10054000012200E00022D14BDB7B462B01DC0123A2
:1005500000E000231A4011430840CC49097C3029AF
:1005600001DB012100E00021C84A127C392A01DCAC
:10057000012200E000221140C44A127C412A01DB22
:10058000012200E00022C14B1B7C462B01DC012331
:1005900000E000231A4011430840BC49497C30293F
:1005A00001DB012100E00021B84A527C392A01DC3C
:1005B000012200E000221140B44A527C412A02DBB1
:1005C000012201E092E00022B04B5B7C462B01DC73
:1005D000012300E000231A4011430840AB49897C05
:1005E000302901DB012100E00021A84A927C392A50
:1005F00001DC012200E000221140A44A927C412A41
:1006000001DB012200E00022A04B9B7C462B01DC99
:10061000012300E000231A40114308409B49C97C94
:10062000302901DB012100E00021984AD27C392ADF
:1006300001DC012200E000221140944AD27C412AD0
:1006400001DB012200E00022904BDB7C462B01DC29
:10065000012300E000231A4011430840E8B38B4A0D
:10066000D17B907BFFF777FE8DF83000874A517C75
:10067000107CFFF770FE8DF83100844AD17C907CAD
:10068000FFF769FE8DF832000020854908600846B2
:1006900000689DF8301008448149086008460068E9
:1006A00000020860084600689DF8311008447C4943
:1006B00008600846006800020860084600689DF867
:1006C0003210084476490860084636210268A020A6
:1006D00033F01EFC7248016800E003E071A032F0C4
:1006E000BBFE02E075A032F0B7FE65E206227CA1F7
:1006F0006648401CFFF74BFE00285CD1002563488C
:10070000C079302801DB012000E000205F49C97971
:10071000392901DC012100E0002108405B49097A08
:10072000302901DB012100E0002108405749097A06
:10073000392901DC012100E0002108405349497AB0
:10074000302901DB012100E0002108404F49497AAE
:10075000392901DC012100E00021084038B34B4871
:10076000C079303885B205EB85004FF6FF7101EA9C
:1007700040054648007A3038284485B205EB8500AC
:1007800001EA40054148407A3038284485B229467C
:1007900055A032F061FE594805800088584908800C
:1007A000564802880221A02033F064FB02E055A0E5
:1007B00032F052FE00E2082258A13448401CFFF7F4
:1007C000E6FD18B958A032F047FEF5E1082260A115
:1007D0002E48401CFFF7DBFDC0BB34216846FFF705
:1007E00029FD00240FE02948401C04F10801405C69
:1007F0000D2805D02548401C405C0DF8040000E0A1
:1008000003E0601CC4B21C2CEDDB00BF00200DF81F
:1008100004006846FFF725FDC4B21C2C03DD302020
:100820008DF81C001C2469464C48FFF72FFD4B49EE
:100830004BA032F011FE2123484A0E21A02033F0B4
:10084000DCF94649012002F0F1FDB5E1FFE70B229A
:1008500048A10E48401CFFF79AFD30B933204849A3
:10086000087048A032F0F8FDA6E10D224BA1074820
:10087000401CFFF78CFD30B900250448807B3028F0
:1008800002DB012093E0E2E090E000003025002050
:1008900041542B4445564943455F49443D000000BF
:1008A000280F00203C2D20536574204445564943B1
:1008B000455F49443A253036580D0A003C2D2053F7
:1008C0006574204445564943455F49443A20777250
:1008D0006F6E6720666F726D61740D0A0000000014
:1008E00041542B43483D00003C2D2041542073656A
:1008F000742043483A253033640D0A000600002076
:10090000080000203C2D204154207365742043488A
:10091000206572726F720D0A0000000041542B5561
:100920005549443D000000003C2D20546869732067
:1009300076657273696F6E206E6F74207375707058
:100940006F72742073657420555544490D0A000078
:1009500041542B4E414D453D000000008B0A0020C4
:100960003C2D20415420536574206E616D653A2002
:100970002573000041542B504F5745523D444300CE
:100980000A0000203C2D2041542073657420506FD4
:10099000776572A3BA44430D0A00000041542B50FE
:1009A0004F5745523D4241542C00000000208549DC
:1009B000897B392901DC012100E0002108408149BF
:1009C000C97B302901DB012100E0002108407D497D
:1009D000C97B392901DC012100E000210840794967
:1009E000097C302901DB012100E000210840754924
:1009F000097C392901DC012100E00021084010B305
:100A00007048807B303885B205EB85004FF6FF716A
:100A100001EA40056B48C07B3038284485B205EBBD
:100A2000850001EA40056748007C3038284485B2DB
:100A300032206549087065490D700846017864A048
:100A400032F00AFD02E069A032F006FDB4E01322A4
:100A50006CA15C48401CFFF79AFC88B900206E49E5
:100A600081F82200084690F822203A21A02033F095
:100A7000CEF96AA032F0F0FC71A032F0EDFC9BE000
:100A8000192277A14F48401CFFF781FC88B901204B
:100A9000614981F82200084690F822203A21A020DE
:100AA00033F0B5F975A032F0D7FC65A032F0D4FC74
:100AB00082E00E227BA14348401CFFF768FC70B91E
:100AC00001217C48C176C27E3B21A02033F09FF9F2
:100AD00079A032F0C1FC5AA032F0BEFC6CE00D22CD
:100AE0007FA13848401CFFF752FC70B902217148C1
:100AF000C176C27E3B21A02033F089F97CA032F080
:100B0000ABFC4FA032F0A8FC56E0122282A12D4887
:100B1000401CFFF73CFC70B903216648C176C27ED9
:100B20003B21A02033F073F980A032F095FC44A063
:100B300032F092FC40E00E2287A12248401CFFF7D1
:100B400026FC70B901215B480177027F3C21A0207F
:100B500033F05DF984A032F07FFC39A032F07CFCE8
:100B60002AE00E228AA11748401CFFF710FC70B93A
:100B7000022150480177027F3C21A02033F047F941
:100B800087A032F069FC2EA032F066FC14E00E2241
:100B90008EA10C48401CFFF7FAFB68B903214548B9
:100BA0000177027F3C21A02033F031F98BA032F095
:100BB00053FC23A032F050FC0020024908700DB015
:100BC00030BD0000302500200A0000200B0000206E
:100BD0003C2D2041542073657420506F776572A3BB
:100BE000BA424154202D2025640D0A003C2D20419D
:100BF000542073657420504F574552206572726FB0
:100C0000720D0A0041542B4445564943455F5459DF
:100C100050453D4C414D5000280F00203C2D2053A5
:100C200065742074686520646576696365207479ED
:100C3000706520746F206C616D70732E0D0A00005A
:100C40003C2D205265737461727420746F2074613E
:100C50006B65206566666563742E0D0A00000000F2
:100C600041542B4445564943455F545950453D43F3
:100C70004F4E54524F4C4C45520000003C2D2053D7
:100C8000657420746865206465766963652074798D
:100C9000706520746F20636F6E74726F6C6C657218
:100CA0002E0D0A0041542B4F55545055543D494484
:100CB0004C450000C00A00203C2D20536574206F75
:100CC0007574707574206D6F64653A204F7574701B
:100CD00075745F4D6F64655F49444C450D0A0000B3
:100CE00041542B4F55545055543D4D415800000030
:100CF0003C2D20536574206F7574707574206D6F72
:100D000064653A204F75747075745F4D6F64655FEC
:100D10004D41580D0A00000041542B4F5554505579
:100D2000543D434F4E5354414E5400003C2D2053EC
:100D30006574206F7574707574206D6F64653A20EA
:100D40004F75747075745F4D6F64655F434F4E539C
:100D500054414E540D0A000041542B534F555243F9
:100D6000453D49444C4500003C2D2053657420739B
:100D70006F75726365206D6F64653A204343545FFD
:100D8000536F757263655F49444C450D0A0000005E
:100D900041542B534F555243453D48415244000066
:100DA0003C2D2053657420736F75726365206D6FE1
:100DB00064653A204343545F536F757263655F4DBA
:100DC00049585F484152440D0A00000041542B53DA
:100DD0004F555243453D534F465400003C2D205340
:100DE000657420736F75726365206D6F64653A205A
:100DF0004343545F536F757263655F4D49585F534A
:100E00004F46540D0A0000000EB5002002900190DC
:100E10004B484C490968884701214B4880F80C1120
:100E2000002180F80D11B0F80A11A0F80811002176
:100E300046A031F009FD00BF434890F80D0100289D
:100E4000FAD00020009064E03F48B0F80811083064
:100E5000405C0D2805D19DF8000010B901200090DC
:100E600047E03948B0F808110830405C0A2806D13C
:100E70009DF80000012802D10220009039E032489C
:100E8000B0F808110830405C4F2806D19DF80000EA
:100E9000022802D1032000902BE02B48B0F8081163
:100EA0000830405C4B2806D19DF80000032802D191
:100EB000042000901DE02448B0F808110830405C80
:100EC0000D2806D19DF80000042802D105200090CD
:100ED0000FE01D48B0F808110830405C0A2806D120
:100EE0009DF80000052802D10620009001E0FF20B7
:100EF00000901548B0F80801401C81B21248A0F8D3
:100F00000811B0F80801FF2803DD00210E48A0F801
:100F100008110D48B0F80811B0F80A01814203D059
:100F20009DF8000006288FDB9DF80000062802D1FE
:100F30000020019001E0012001909DF804000EBD09
:100F400000E204003C000020EC06002041542B4E3F
:100F5000445245534554000000B593B00020129010
:100F600011901090342103A8FFF764F95D4805F053
:100F7000ABFF5C480F3005F09BFF03A9002002F097
:100F800055FA58490F3103A8FFF772F938B156A046
:100F900032F062FA53490F31012002F047FA514909
:100FA0002139002002F0F2FC00286AD10090019063
:100FB0000290534A92F87C1392F87B0331F03CFF85
:100FC0008DF800004E4A92F87E1392F87D0331F0BE
:100FD00033FF8DF801004A4A92F8801392F87F039C
:100FE00031F02AFF8DF80200454A92F8821392F8F8
:100FF000810331F021FF8DF80300414A92F88413F8
:1010000092F8830331F018FF8DF804003C4A92F8FF
:10101000861392F8850331F00FFF8DF80500384AEA
:1010200092F8881392F8870331F006FF8DF80600D6
:10103000334A92F88A1392F8890331F0FDFE8DF855
:1010400007002F4A92F88C1392F88B0331F0F4FECC
:101050008DF808002A4A92F88E1392F88D0331F029
:10106000EBFE8DF809000A221E49684604F0D0FE06
:1010700030B124A032F0F0F91A49012002F086FCC8
:1010800000BFFFF7C1FE119002F0B2FB10900020EC
:101090001B4981F86C0381F86E039DF8440028B960
:1010A0009DF8400010B90020129016E09DF8440011
:1010B00028B19DF8400010B1032012900DE09DF87A
:1010C000440010B10120129007E09DF8400010B1DB
:1010D0000220129001E0042012909DF8480013B005
:1010E00000BD00007C0A00203C2D20424C452075AC
:1010F0007064617461206E616D650D0A000000000E
:10110000EC0600203C2D20424C4520757064617433
:101110006120555549440D0A0000000070B50325B3
:101120000124274890F8D10301280FD004F082FD54
:1011300040B90120224981F8D103002421A032F0D6
:101140008BF903E0012425A032F086F9002C1FD191
:10115000284832F03FF9274804F0E6FC18B926A0E9
:1011600032F07AF902E02BA032F076F90325284616
:1011700004F014FC40B90320114981F86D032CA040
:1011800032F06AF9002403E035A032F065F9012459
:1011900034B900200A4981F8D10381F86C030DE0CD
:1011A00004F0BAFD38B90020054981F8D10337A011
:1011B00032F052F902E03CA032F04EF9204670BD08
:1011C000EC0600203C2D20496E204154206D6F64B8
:1011D0006520737563636573730D0A003C2D2049A8
:1011E0006E204154206D6F6465206661696C757274
:1011F000650D0A008B0A00203C2D20536574207574
:10120000736572206E616D652073756363657373BA
:101210000D0A00003C2D2053657420757365722003
:101220006E616D65206661696C7572650D0A0000FE
:101230003C2D205365742075736572206D6F647545
:101240006C20736C61766520696E206174206D6F0F
:10125000646520737563636573730D0A0000000095
:101260003C2D205365742075736572206D6F647515
:101270006C207365736820696E206174206D6F64E3
:1012800065206661696C7572650D0A003C2D204F02
:101290007574204154206D6F6465207375636365B8
:1012A00073730D0A000000003C2D204F757420411F
:1012B00054206D6F6465206661696C7572650D0AF6
:1012C0000000000038B50446012000904B4890F81B
:1012D000D10308B9012038BD2046FEF7C2FF062819
:1012E00001D00120F7E703F095FD4CF2503044495E
:1012F000096888470121414880F80C11002180F8D5
:101300000D1108213FA031F081FA0621204631F06D
:101310007DFA0D203E49096888470A203C49096842
:10132000884700BF354890F80D010028FAD0002109
:10133000324880F80D11007A0D285BD12F48407A91
:101340000A2857D12D48C07A502853D12B48007B0A
:1013500041284FD12948407B53284BD12748807BD7
:10136000532847D12548B0F80A01001F2349083106
:10137000085C4F283ED12148B0F80A01C01E085C25
:101380004B2837D11D48007C2178884201D10120AB
:1013900000E000201949497C6278914201D1012185
:1013A00000E0002108431549897CA278914201D1CF
:1013B000012100E0002108431049C97CE2789142F4
:1013C00001D1012100E0002108430C49097D227967
:1013D000914201D1012100E0002108430749497DE4
:1013E0006279914201D1012100E00021084308B156
:1013F000002000909DF800006DE70000EC06002042
:101400003C00002041542B504153533D000000004C
:101410003400002030B593B000201290119010904D
:101420000024342103A8FEF705FFF54800780128C1
:101430007BD1F34890F80D01012877D1F048B0F83E
:101440000A010B2873D10722EE49ED480A3004F057
:10145000DFFC08B9012500E000250722EA49E84839
:101460000A3004F0D5FC08B9012000E00020054353
:10147000002D5CD00120E24981F86C03E3A031F03B
:10148000EBFF002407E0DE480830A11C405CE04987
:101490000855601C84B2DA480830A11C405C0D2855
:1014A000F1D10020DA490855DA4805F00DFDD94898
:1014B0000F3005F0FDFCD8A031F0CEFFD449DEA0FE
:1014C00031F0CAFF01F078FC50B9D2494C39E0A0A4
:1014D00031F0C2FFCF493839E6A031F0BDFF02E05C
:1014E000EEA031F0B9FF03A9002001F09FFFC94928
:1014F0000F3103A8FEF7BCFE20B1C6490F31012011
:1015000001F094FF11AAC3492339002001F09AFD8C
:1015100000282CD1BA4890F86D03012808D19DF815
:101520004410E7A031F098FF07E01AE12FE315E13E
:101530009DF84410ECA031F08FFFB14890F86D0396
:10154000012814D00120AE4981F86D0311AA01F2DF
:101550006D3101F077FD18B9EDA031F07DFF06E0A7
:10156000F4A031F079FF0020A54981F86D03A94965
:101570002139002002F00AFA00287DD1F6A031F0CE
:101580006BFF002418E0A3482138015DF8A031F07A
:1015900063FF204604EBD0714910A4EB410119B15F
:1015A0002021F3A031F058FF0B2C03D12021F0A013
:1015B00031F052FF601C84B2202CE4DB93A031F0A8
:1015C0004BFF00200090019002908D4A92F87C130E
:1015D00092F87B0331F030FC8DF80000884A92F8D5
:1015E0007E1392F87D0331F027FC8DF80100844AC8
:1015F00092F8801392F87F0331F01EFC8DF8020000
:101600007F4A92F8821392F8810331F015FC8DF82D
:1016100003007B4A92F8841392F8830331F00CFCA8
:101620008DF80400764A92F8861392F8850331F01B
:1016300003FC8DF80500724A92F8881392F887032C
:1016400031F0FAFB8DF806006D4A92F88A1392F891
:10165000890331F0F1FB8DF80700694A92F88C1389
:1016600092F88B0331F0E8FB8DF80800644A92F899
:101670008E1392F88D0300E026E031F0DDFB8DF84B
:1016800009000A226349684604F0C2FBD8B16149E7
:10169000012002F07BF988B9B6A031F0DDFE00240C
:1016A00006E05C48015DBDA031F0D6FE601C84B24E
:1016B0000A2CF6DB55A031F0CFFE02E0B9A031F0E4
:1016C000CBFE02F095F802E0BDA031F0C5FE514816
:1016D0000A3001F045FA28B94E490A31BFA031F06D
:1016E000BBFE02E0C3A031F0B7FE454890F89A0374
:1016F000302801D1012000E00020414991F89B13DE
:10170000302901D1012100E0002108403C4991F835
:101710009C13302901D1012100E000210840384903
:1017200091F89D13302901D1012100E000210840EA
:1017300020B10020324981F86E0303E001203049D6
:1017400081F86E0331A031F087FE002404E0002010
:101750002F490855601C84B2FF2CF8DD03F05AFBBA
:1017600015E2274800780228FAD10120244981F89F
:101770006C03C820A6490968884704F05BFA002872
:101780003BD1A4A031F068FE01201D4981F8D103AE
:1017900001F29F3031F01EFE03A804F001F8A8B951
:1017A000A3A031F059FE1B490F3103A8FEF760FDDD
:1017B00078B118480F3004F0B7F918B9A3A031F088
:1017C0004BFE06E0A8A031F047FE02E0ADA031F0EC
:1017D00043FE1048233803F04DFF68B9084890F8DD
:1017E0006D03012800D100E00020054991F86D1338
:1017F000032903D1012154E166E187E150E10000B2
:10180000EC0600208C000020930000200D0A000050
:101810004D1F00207C0A00203C2D20424C45204DCD
:101820006F64756C65207265616479202D2D20468A
:1018300053432E0D0A0000003C2D20537461727436
:1018400020636F64652069733A2025730D0A0000D8
:101850003C2D20424C45204D6F64756C6520736FA4
:1018600066742076657273696F6E2069733A2025FD
:10187000730D0A003C2D20424C45204D6F64756C61
:10188000652068617264776172652076657273693C
:101890006F6E2069733A2025730D0A003C2D20429B
:1018A0004C455F4D6F64756C652067657420766587
:1018B0007273696F6E206661696C652E0D0A000097
:1018C0003C2D20424C45204D4F44452069733A2021
:1018D000415050204D4553482C2020636F646520B3
:1018E00069732025640D0A003C2D20424C45204D93
:1018F0004F44452069733A20556E6B6F6E772C20EC
:1019000020636F64652069732025640D0A00000060
:101910003C2D20424C452073657420415050204D91
:10192000455348206D6F64652073756363657373F9
:101930002E0D0A003C2D20424C4520736574204139
:101940005050204D455348206D6F64652066616995
:101950006C652E0D0A0000003C2D20424C4520668F
:10196000756C6C20555549442069733A200000007D
:10197000256300003C2D20424C45207365742055A2
:1019800055494420737563636573732E20736574C2
:1019900020646174612069733A2000002530325858
:1019A000200000003C2D20424C45207365742055DA
:1019B000554944206661696C652E0D0A00000000DF
:1019C0003C2D20424C4520726561642055554944A8
:1019D000206661696C652E0D0A0000003C2D2042D6
:1019E0004C45204E4449442069733A2025730D0A22
:1019F000000000003C2D20424C45207265616420AF
:101A00004E444944206661696C652E0D0A00000051
:101A10004C0000203C2D20456E74657220415420FE
:101A20006D6F646520737563636573730D0A0000E1
:101A30003C2D20526561642075736572206E616D66
:101A40006520737563636573730D0A003C2D205325
:101A500065742075736572206E616D6520737563A2
:101A6000636573730D0A00003C2D20536574207567
:101A7000736572206E616D65206661696C75726553
:101A80000D0A00003C2D205265616420757365725B
:101A9000206E616D65206661696C7572650D0A0066
:101AA0000021084398B903203A4981F86D0391F861
:101AB0006D0303F073FF18B937A031F0CDFC06E0D9
:101AC0003CA031F0C9FC02E041A031F0C5FC314836
:101AD00090F86D0301280AD1444803F0E5FE18B9D7
:101AE00043A031F0B9FC02E048A031F0B5FC04F0AD
:101AF00013F938B90020274981F8D1034AA031F001
:101B0000ABFC06E04FA031F0A7FC02E054A031F09E
:101B1000A3FC5AA031F0A0FC344986395FA031F013
:101B20009BFC32492B3966A031F096FC194890F89D
:101B30006D03032803D167A031F08EFC0BE015483C
:101B400090F86D03012803D16AA031F085FC02E012
:101B500070A031F081FC0F4890F86D03012814D17A
:101B60000C4890F8CF1390F8CE030A4A92F8CD2390
:101B7000CDE900200291074890F8CC3390F8CB23B0
:101B800090F8CA136BA031F067FC03F043F913B06F
:101B900030BD0000EC0600203C2D205365742075FC
:101BA000736572206D6F646520737563636573730D
:101BB0000D0A00003C2D205365742075736572205A
:101BC0006D6F6465206661696C7572650D0A000051
:101BD0003C2D20526561642075736572206D6F64C1
:101BE00065206661696C7572650D0000B60A00209B
:101BF0003C2D20526561642070617373776F72644D
:101C000020737563636573730D0A00003C2D2052C9
:101C10006561642070617373776F726420666169B7
:101C20006C7572650D0A00003C2D204F75742041C3
:101C300054206D6F646520737563636573730D0A5B
:101C4000000000003C2D204F7574204154206D6F22
:101C50006465206661696C7572650D0A000000009C
:101C60003C2D20456E746572204154206D6F646573
:101C7000206661696C7572650D0A00003C2D20427A
:101C80004C45206D6F64756C6520726561647920C8
:101C90002D2D20555345522E0D0A00003C2D20427B
:101CA0004C45206D6F64756C6520736F667420768B
:101CB000657273696F6E2069733A2025730D0A008F
:101CC0003C2D20424C45206E616D652069733A259C
:101CD000730D0A003C2D2055534552206F706572DC
:101CE0006174696F6E206D6F64653A20534C415684
:101CF000450D0A003C2D2055534552206F706572EA
:101D00006174696F6E206D6F64653A204D4553486C
:101D10000D0A00003C2D2055534552206F7065720E
:101D20006174696F6E206D6F64653A206572726FC1
:101D3000720D0A003C2D2055534552206D6F64757D
:101D40006C206D6573682070617373776F72643A8D
:101D50002025303278202530327820253032782006
:101D600025303278202530327820253032780D0A1F
:101D70000000000000200221094A11710021517168
:101D800000220849A1F8422381F8142281F8152283
:101D90000021044A82F8D21382F86E1370470000C3
:101DA000280F0020EC0600202DE9F04F91B00446EA
:101DB0008A4617469946DDF868B000250026A846F1
:101DC000002010900F900E900D90142108A8FEF79F
:101DD00031FAFF2007900120069000200490059022
:101DE000FE480078012879D1BAF1170F77DBE07847
:101DF000442874D120794128FBD160795428F8D146
:101E0000A0794128F5D1207AF44981F8C003617A9C
:101E1000F24880F8C113A17A80F8C213E17A80F801
:101E2000C313607BED4981F8C503A17BEB4880F8C3
:101E3000C613E17B80F8C713217C80F8C81300BF6C
:101E400012250AE008EB88004FEA4008605D303850
:101E5000404400F0FF08681CC5B2605D2C28F1D139
:101E6000A8F1010000F0FF08A81CC5B2681C205CA6
:101E700000F0840018BBA81C205C03281FD1E81CBC
:101E8000205C05281BD1605DD5490978884211D0B6
:101E9000605DD3490870002604E0A819205CB8559D
:101EA000701CC6B24645F8DB01208BF8000089F8AB
:101EB000008017E3615DCBA031F0CEFAF9E7605DF9
:101EC000D2490978884270D0605DD0490870681C9A
:101ED000205C00F0800080B9002606E002E1E5E029
:101EE000A819205CB855701CC6B24645F8DB012025
:101EF0008BF8000089F80080DBE7681C205CC0F3E9
:101F0000C1008DF813009DF81300022806D1A81C0B
:101F1000205C1090E81C205C0F9005E0281D205CE0
:101F20001090681D205C0F901098012877D1002038
:101F3000B74908809DF81300022837D1605D0988F1
:101F40007854B3480088401CB1490880681C205C64
:101F500009887854AE480088401CAD490880A81C08
:101F6000205C09887854AA480088401CA849088049
:101F7000E81C205C09887854A5480088401CA449C6
:101F8000088000260CE0281D3044205CA049098808
:101F900078549F480088401C9D490880701CC6B238
:101FA000A8F10400B042EEDC83E77AE0605D984976
:101FB0000988785496480088401C95490880681C18
:101FC000205C0988785492480088401C9049088019
:101FD000A81C205C098878548D480088401C8C49D6
:101FE0000880E81C205C0988785489480088401CD7
:101FF0008749088000260CE0A81D3044205C8449F5
:102000000988785482480088401C81490880701CE7
:10201000C6B2A8F10600B042EEDC4AE7FFE79DF841
:10202000130002281ED100260CE0281D3044205C3D
:1020300077490988785476480088401C744908809C
:10204000701CC6B2A8F10400B042EEDCDDE90F104E
:102050008842A9D101208BF800006D48007889F8EA
:10206000000026E700260CE0A81D3044205C6849EB
:102070000988785466480088401C65490880701CAF
:10208000C6B2A8F10600B042EEDCDDE90F108842CE
:102090008AD101208BF800005D48007889F80000A3
:1020A00007E7615D5BA031F0D7F902E762A031F08C
:1020B000D3F967A031F0D0F96FA031F0CDF9002647
:1020C00005E0A15D6FA031F0C7F9701CC6B256459E
:1020D000F7DB6EA031F0C0F901208BF8000089F821
:1020E0000060E6E63D480078022896D13B4890F82B
:1020F0006D0303286FD100200E90002606E0A15D3D
:102100000E980844C0B20E90701CC6B2142EF6DBB6
:10211000BAF1170F60D12078AA28FBD16078552832
:10212000F8D1E0780028F5D120791728F2D160792C
:102130000128EFD1A0790128ECD1607D0D28E9D1EB
:10214000A07D0A28E6D1217D0E988142E2D1E07976
:102150005049096808604F480068006800024D490E
:10216000096808604B4800680068217A08444949BA
:102170000968086047480068006800024549096826
:102180000860444800680068617A08444149096869
:10219000086040480068006800023E49096808601D
:1021A0003C4800680068A17A08443A490968086018
:1021B000E07A0A4981F8CA03217B084880F8CB13EA
:1021C000617B80F8CC13A17B80F8CD13E17B80F894
:1021D000CE13217C60E086E149E10000EC0600209E
:1021E000AD0000203C2D2052656365697665207343
:1021F000616D6520544E28626173652074696D6558
:10220000293A253032580D0A00000000AC000020A9
:10221000AE0000203C2D2052656365697665207311
:10222000616D6520544E286E6F726D616C293A2580
:102230003032580D0A0000000D0A3C2D2044656321
:102240006F6465206572726F7221210D0A000000B3
:102250003C2D205265636569766520646174612058
:102260006C657373207468656E20323362797465AF
:1022700021210D0A0D0A00003C2D204461746120CB
:1022800069733A0025303258000000000D0A0D0A2B
:10229000000000006000002080F8CF13607CFB4944
:1022A00081F8D203A07C0D904FF6FF710D9801EAE2
:1022B00000200D90E17C0D98084480B20D900D989F
:1022C00001280DDB0D98B0F5007F09DCF0480068AF
:1022D00001880D98814203D0ED490D980968088066
:1022E0000D208DF820000A208DF82100A0788DF8AF
:1022F000220000208DF823000F208DF824000220FA
:102300008DF8250001208DF82600E148006800883E
:1023100000128DF82700DE48006800788DF828004C
:10232000DC480068000C8DF82900DA480088000AB3
:102330008DF82A00D74800788DF82B0000200E90E9
:10234000002607E008A8815D0E980844C0B20E90F0
:10235000701CC6B20C2EF5DB0E988DF82C000D20EB
:102360008DF82D000A208DF82E00002606E008A921
:10237000885DC94909688847701CC6B20F2EF6DB14
:102380004FF4FA70C54909688847C04890F8D103EE
:10239000012807D003F04EFC07900120BB4981F8CB
:1023A000D10301E000200790079800285BD1AFF22D
:1023B0003C1031F051F8BAA031F04EF8C148FEF7A8
:1023C00081FFB8B900200790B04890F8CF1390F87B
:1023D000CE03AE4A92F8CD23CDE900200291AB485E
:1023E00090F8CC3390F8CB2390F8CA13B64831F06C
:1023F00033F804E0FF200790B4A031F02DF80798DF
:1024000080B901200690069803F0C8FA28B9002088
:102410000790BAA031F020F804E0FF200790C2A096
:1024200031F01AF8079860B90120984981F86D03D6
:10243000002081F86C0381F8D103C6A031F00CF8BC
:102440004BE003F069FC38B90020904981F8D103D2
:10245000C6A031F001F802E0CBA030F0FDFFD1A022
:1024600030F0FAFF39E0D5A030F0F6FF35E0207803
:102470000D2821D160780A281ED1A07857281BD1B9
:10248000E078612818D120796B2815D1607965280A
:1024900012D1A07920280FD1E07955280CD1207ACB
:1024A000502809D1607A0D2806D1A07A0A2803D1D4
:1024B000C9A030F0D1FF10E0CFA030F0CDFF002652
:1024C00005E0A15DD4A030F0C7FF701CC6B2564530
:1024D000F7DBAFF2482030F0BFFF00208BF80000A0
:1024E00089F8000033E369480078022871D1BAF115
:1024F0000F0F35D120780D2832D160780A282FD1DE
:10250000A0782B282CD1E078532829D12079452890
:1025100026D160794E2823D1A079442820D1E079B2
:102520003A281DD1207A53281AD1607A742817D1FD
:10253000A07A612814D1E07A722811D1207B742806
:102540000ED1607B0D280BD1A07B0A2808D1B4A046
:1025500030F082FF002089F8000011B0BDE8F08F54
:10256000BAF10E0F35D120780D2832D160780A28C3
:102570002FD1A0782B282CD1E078532829D120798D
:10258000452826D160794E2823D1A079442820D12E
:10259000E0793A281DD1207A53281AD1607A74281C
:1025A00017D1A07A6F2814D1E07A702811D1207B3E
:1025B0000D280ED1607B0A280BD1A2A030F04CFF71
:1025C0000021324880F81512002089F80000C4E785
:1025D000FFE7002003906078A3490978884253D030
:1025E0006078A1490870A07800F0800000284CD1E4
:1025F000A07800F0040078BBE07903904FF6FF71FB
:10260000039801EA00200390217A0398084480B2DD
:1026100003901F48006801880398814205D11B4838
:1026200090F8D20308B9012000E000202178174A71
:1026300092F8D223914205D1144991F8D21309B1ED
:10264000012100E000210843E178032905D1217927
:10265000052902D1012101E008E1002108430028F9
:10266000BDD00125AAF1010000F0FF08002604E01A
:10267000A819205CB855701CC6B24645F8DB01208D
:102680008BF8000089F8008060E25EE1EC06002033
:1026900054000020280F0020340000204C000020AF
:1026A0003C2D2055534552206D6F64756C2073741A
:1026B0006172742073657474696E67206D657368E8
:1026C0000D0A0000B60A0020505103083C2D20538B
:1026D00065742075736572206D6F64756C20706110
:1026E0007373776F726420696E206174206D6F64FC
:1026F00065206661696C7572650D0A003C2D20537A
:1027000065742075736572206D6F64756C207365D8
:10271000736820696E206174206D6F646520737525
:1027200063636573730D0A003C2D20536574207537
:10273000736572206D6F64756C20736573682069B2
:102740006E206174206D6F6465206661696C7572BE
:10275000650D0A003C2D20536574206D657368205B
:10276000737563636573730D0A0D0A003C2D204F6A
:102770007574204154206D6F6465207375636365C3
:1027800073730D0A000000003C2D204F757420412A
:1027900054206D6F6465206661696C7572650D0A01
:1027A000000000003C2D20536574206D6573682087
:1027B0006661696C7572650D0A0D0A003C2D204535
:1027C0006E746572204154206D6F64652066616986
:1027D0006C7572650D0A00003C2D205265616365C1
:1027E00069766520737472696E673A2057616B650C
:1027F0002055700D0A0D0A000D0A3C2D2043686516
:10280000636B2073756D206572726F722C646174D6
:10281000612069733A0D0A002530327820000000EB
:102820003C2D2055534552206D6F64756C207265A8
:1028300063656976652073656E645F737461727435
:102840000D0A00003C2D2055534552206D6F6475D4
:102850006C20726563656976652073656E645F736D
:10286000746F700D0A000000AC0000200125681C88
:10287000205CC0F3C1008DF813009DF813000228FE
:102880001FD1A81C205C1090E81C205C0F902078C1
:10289000B04991F8D213884212D100BFAAF10100C9
:1028A00000F0FF08002604E0A819205CB855701C51
:1028B000C6B24645F8DB01208BF8000089F800809D
:1028C00044E1281D205C1090681D205C0F90A078CA
:1028D00003904FF6FF71039801EA00200390E1781E
:1028E0000398084480B203909B48006801880398CD
:1028F000814205D1974890F8D20308B9012000E041
:1029000000202178934A92F8D223914205D191492F
:1029100091F8D21309B1012100E0002108430028F9
:10292000CED00125AAF1010000F0FF08002604E046
:10293000A819205CB855701CC6B24645F8DB0120CA
:102940008BF8000089F8008000E10125AAF1010060
:1029500000F0FF08681C205CC0F3C1008DF8130074
:102960009DF81300022867D1A81C205C1090E81C79
:10297000205C0F902078774991F8D21388429FD13C
:102980001098012839D1002074490880605D0988B9
:10299000785472480088401C70490880681C205C8C
:1029A000098878546D480088401C6C490880A81C30
:1029B000205C0988785469480088401C6749088071
:1029C000E81C205C0988785464480088401C6349EE
:1029D000088000260CE0281D3044205C5F490988EF
:1029E00078545E480088401C5C490880701CC6B260
:1029F000A8F10400B042EEDCA8E000260CE0281D9F
:102A00003044205C55490988785454480088401C5B
:102A100052490880701CC6B2A8F10400B042EEDC36
:102A2000DDE90F10884206D101208BF800004B48E9
:102A3000007889F8000089E0281D205C1090681D4E
:102A4000205C0F90A07803904FF6FF71039801EA85
:102A500000200390E1780398084480B203903E4838
:102A6000006801880398814205D13A4890F8D20362
:102A700008B9012000E000202178364A92F8D223DC
:102A8000914205D1334991F8D21309B1012100E0F7
:102A900000210843D8B31098012839D100202F49CC
:102AA0000880605D098878542C480088401C2B49B8
:102AB0000880681C205C0988785428480088401CDD
:102AC00026490880A81C205C09887854234800887F
:102AD000401C22490880E81C205C098878541F4863
:102AE0000088401C1D49088000260CE0A81D3044C9
:102AF000205C1A490988785418480088401C1749F6
:102B00000880701CC6B2A8F10600B042EEDC1DE0E1
:102B100000260CE0A81D3044205C10490988785438
:102B20000E480088401C0D490880701CC6B2A8F1F0
:102B30000600B042EEDCDDE90F10884206D101202C
:102B40008BF800000548007889F8000000BF00BF3E
:102B500003E50000EC06002054000020AE00002039
:102B60003EB504460020029001908A4890F86C031C
:102B700008B901203EBD41F270708749088087483E
:102B80008749096888470121824880F80C11002193
:102B900080F80D11B0F80A11A0F80811002181A0E9
:102BA0002FF052FE00BF7B4890F80D010028FAD0AC
:102BB00040F6B8307849088000200090B1E07548B0
:102BC000B0F808110830405C0D2805D19DF80000D0
:102BD00010B90120009094E06E48B0F80811083058
:102BE000405C0A2808D19DF80000012804D1022089
:102BF00000900020029084E09DF8000002281CD183
:102C00006448B0F808110830405C0D2802D1032058
:102C1000009076E05F48B0F808110830405C6349E6
:102C2000BDF808208854BDF80800401C80B202900E
:102C30000020BDF80820885463E05648B0F8081119
:102C40000830405C0A2806D19DF80000032802D114
:102C50000420009055E04F48B0F808110830405C5F
:102C60000D2806D19DF80000042802D1052000900F
:102C700047E04848B0F808110830405C0A2806D1FF
:102C80009DF80000052802D10620009039E0414857
:102C9000B0F808110830405C4F2806D19DF80000BC
:102CA000062802D1072000902BE03A48B0F808111E
:102CB0000830405C4B2806D19DF80000072802D15F
:102CC000082000901DE03348B0F808110830405C3F
:102CD0000D2806D19DF80000082802D10920009097
:102CE0000FE02C48B0F808110830405C0A2806D1E3
:102CF0009DF80000092802D10A20009001E0FF2081
:102D000000902448B0F80801401C81B22148A0F886
:102D10000811B0F80801FF2803DD00211D48A0F8C4
:102D200008111C48B0F80811B0F80A01814204D01B
:102D30009DF800000A28FFF642AF9DF800000A281F
:102D400022D106221AA1194803F062F8C8B900205E
:102D500002900CE01549BDF80800801D085CBDF824
:102D600008106054BDF80800401C80B20290BDF805
:102D700008000428EEDB0020BDF808106054019024
:102D800004E00120019001E0012001909DF8040081
:102D9000F0E60000EC0600207400002080380100FE
:102DA0003C00002041542B4E444944004D2000205B
:102DB0002B4E4449443D000070B58AB00020079076
:102DC00008900990142102A8FDF734FA0024002588
:102DD0000026934890F86C0310B901200AB070BD2A
:102DE000904891490968884701218D4880F80C1165
:102DF000002180F80D11B0F80A11A0F80811002187
:102E00008AA02FF021FD00BF854890F80D01002811
:102E1000FAD000200190A9E08148B0F808110830EC
:102E2000405C0D2805D19DF8040010B901200190E7
:102E30008CE07B48B0F808110830405C0A2807D1C4
:102E40009DF80400012803D10220019000247DE0B8
:102E50009DF80400022815D17148B0F80811083017
:102E6000405C0D2802D1032001906FE06C48B0F85F
:102E700008110830405C6F490855601C84B200207E
:102E8000085563E06648B0F808110830405C0A282D
:102E900006D19DF80400032802D10420019055E0DA
:102EA0005F48B0F808110830405C0D2806D19DF845
:102EB0000400042802D10520019047E05848B0F8EA
:102EC00008110830405C0A2806D19DF80400052846
:102ED00002D10620019039E05148B0F808110830BD
:102EE000405C4F2806D19DF80400062802D1072037
:102EF00001902BE04A48B0F808110830405C4B289C
:102F000006D19DF80400072802D1082001901DE099
:102F10004348B0F808110830405C0D2806D19DF8F0
:102F20000400082802D1092001900FE03C48B0F8C5
:102F300008110830405C0A2806D19DF804000928D1
:102F400002D10A20019001E0FF2001903448B0F83E
:102F50000801401C81B23248A0F80811B0F80801FD
:102F6000FF2803DD00212E48A0F808112C48B0F8F6
:102F70000811B0F80A01814204D09DF804000A2823
:102F8000FFF64AAF9DF804000A2845D105222AA180
:102F9000284802F03DFF88BB052406E02548015D76
:102FA000601F07AA1154601C84B22248005D2C28BF
:102FB000F4D1002007A908552148FDF767F9601CE6
:102FC00084B2254606E01B48005D611B02AA5054EE
:102FD000601C84B21748005D2C2801D0012000E05D
:102FE00000201449095D0D2901D0012100E00021D4
:102FF00008401049095D11B1012101E00AE00021FA
:1030000008400028DFD102A908550D481430FDF70B
:103010003DF902E0012600E001263046DEE6000030
:10302000EC060020803801003C00002041542B5663
:10303000455200004D2000202B5645523D00000017
:10304000300A002070B588B005460C4616460020B0
:10305000059006900790049003900290E64890F83F
:103060006C0310B9012008B070BD002D6FD141F282
:103070007070E2490880E248E24909688847012106
:10308000DD4880F80C11002180F80D11B0F80A110C
:10309000A0F808110021DCA02FF0D6FB00BFD64815
:1030A00090F80D010028FAD040F6B830D3490880D6
:1030B00000200190B2E0D048B0F808110830405C20
:1030C0000D2805D19DF8040010B90120019095E06C
:1030D000C948B0F808110830405C0A2808D19DF8AA
:1030E0000400012804D1022001900020049085E012
:1030F0009DF8040002281CD1BF48B0F80811083020
:10310000405C0D2802D10320019077E0BA48B0F866
:1031100008110830405CBE49BDF810208854BDF845
:103120001000401C80B204900020BDF8102088548C
:1031300064E0B148B0F808110830405C0A2807D1B3
:103140009DF80400032803D10420019056E098E084
:10315000A948B0F808110830405C0D2806D19DF848
:103160000400042802D10520019047E0A248B0F8ED
:1031700008110830405C0A2806D19DF80400052893
:1031800002D10620019039E09B48B0F808110830C0
:10319000405C4F2806D19DF80400062802D1072084
:1031A00001902BE09448B0F808110830405C4B289F
:1031B00006D19DF80400072802D1082001901DE0E7
:1031C0008D48B0F808110830405C0D2806D19DF8F4
:1031D0000400082802D1092001900FE08648B0F8C9
:1031E00008110830405C0A2806D19DF8040009281F
:1031F00002D10A20019001E0FF2001907E48B0F842
:103200000801401C81B27C48A0F80811B0F8080100
:10321000FF2803DD00217848A0F808117648B0F8AF
:103220000811B0F80A01814204D09DF804000A2870
:10323000FFF641AF9DF804000A280ED1062275A1C1
:10324000734802F0E5FD28B9714880793038C0B282
:10325000029004E00120039001E0012003909DF81A
:10326000080010B90120207007E09DF8080002282E
:1032700001D1207001E0002020709DF8080030701E
:10328000B6E02078012802D13020029007E02078B3
:10329000022802D13220029001E001200390207820
:1032A000012802D0207802280AD15CA105A8FCF7E9
:1032B000EDFF9DF808008DF81C0000208DF81D0022
:1032C0004F4850490968884701214B4880F80C1144
:1032D000002180F80D11B0F80A11A0F808110021A2
:1032E00005A82FF0B1FA00BF434890F80D0100285F
:1032F000FAD0002001905DE03F48B0F80811083096
:10330000405C0D2805D19DF8040010B90120019002
:1033100040E03948B0F808110830405C0A2808D16C
:103320009DF80400012804D102200190002004909F
:1033300030E09DF8040002281CD12F48B0F8081195
:103340000830405C0D2802D10320019022E02A4879
:10335000B0F808110830405C2D49BDF810208854A1
:10336000BDF81000401C80B204900020BDF8102071
:1033700088540FE02048B0F808110830405C0A2853
:1033800006D19DF80400032802D10420019001E039
:10339000FF2001901848B0F80801401C81B216487F
:1033A000A0F80811B0F80801FF2803DD0021124839
:1033B000A0F808111048B0F80811B0F80A018142CD
:1033C00003D09DF804000A2896DB9DF80400042829
:1033D0000BD1022214A10E4802F01AFD10B90020F0
:1033E000039004E00120039001E00120039000BF5E
:1033F0009DF80C0037E60000EC0600207400002069
:10340000803801003C00002041542B4D4F444500C2
:103410004D2000202B4D4F44453D000041542B4D85
:103420004F44453D000000004F4B000030B58DB0CB
:1034300004460D46202105A8FCF7FCFE0020049060
:1034400003900290DC4890F86C0310B901200DB095
:1034500030BD002C6FD141F27070D8490880D84837
:10346000D849096888470121D34880F80C11002108
:1034700080F80D11B0F80A11A0F808110021D2A0AF
:103480002FF0E2F900BFCC4890F80D010028FAD0E7
:1034900040F6B830C949088000200190B2E0C64823
:1034A000B0F808110830405C0D2805D19DF80400E3
:1034B00010B90120019095E0BF48B0F8081108301C
:1034C000405C0A2808D19DF80400012804D102209C
:1034D00001900020049085E09DF8040002281CD192
:1034E000B548B0F808110830405C0D2802D103201F
:1034F000019077E0B048B0F808110830405CB4495A
:10350000BDF810208854BDF81000401C80B2049013
:103510000020BDF81020885464E0A748B0F80811D6
:103520000830405C0A2807D19DF80400032803D125
:103530000420019056E09CE09F48B0F80811083044
:10354000405C0D2806D19DF80400042802D1052016
:10355000019047E09848B0F808110830405C0A280C
:1035600006D19DF80400052802D10620019039E01B
:103570009148B0F808110830405C4F2806D19DF8FA
:103580000400062802D1072001902BE08A48B0F8F9
:1035900008110830405C4B2806D19DF8040007282C
:1035A00002D1082001901DE08348B0F808110830CE
:1035B000405C0D2806D19DF80400082802D109209E
:1035C00001900FE07C48B0F808110830405C0A28F0
:1035D00006D19DF80400092802D10A20019001E0DB
:1035E000FF2001907448B0F80801401C81B2724875
:1035F000A0F80811B0F80801FF2803DD00216E488B
:10360000A0F808116C48B0F80811B0F80A0181421E
:1036100004D09DF804000A28FFF641AF9DF804008D
:103620000A2823D106226BA1694802F0F1FBD0B928
:10363000002004900CE06649BDF81000801D085C75
:10364000BDF810106854BDF81000401C80B2049002
:103650005F49BDF81000801D085C48B1BDF810003E
:103660002028E8DB04E00120039001E00120039022
:103670009FE05AA105A8FCF709FE5B4905A8FCF7E5
:10368000E4FD4F484F490968884701214A4880F8BE
:103690000C11002180F80D11B0F80A11A0F80811E2
:1036A000002105A82FF0D0F800BF434890F80D0185
:1036B0000028FAD0002001905DE03F48B0F80811E2
:1036C0000830405C0D2805D19DF8040010B9012098
:1036D000019040E03848B0F808110830405C0A28F2
:1036E00008D19DF80400012804D102200190002097
:1036F000049030E09DF8040002281CD12E48B0F858
:1037000008110830405C0D2802D10320019022E00E
:103710002948B0F808110830405C2D49BDF8102048
:103720008854BDF81000401C80B204900020BDF801
:10373000102088540FE02048B0F808110830405C91
:103740000A2806D19DF80400032802D10420019024
:1037500001E0FF2001901848B0F80801401C81B238
:103760001548A0F80811B0F80801FF2803DD002172
:103770001148A0F808111048B0F80811B0F80A0173
:10378000814203D09DF804000A2896DB9DF80400CE
:1037900004280BD1022215A10D4802F039FB10B903
:1037A0000020039004E00120039001E00120039039
:1037B00000BF9DF80C004AE6EC06002074000020D3
:1037C000803801003C00002041542B4E414D450003
:1037D0004D2000202B4E414D453D000041542B4EC5
:1037E000414D453D000000008B0A00204F4B00007A
:1037F00000B587B0002004900590069003900290D9
:1038000001905B4890F86C0310B9012007B000BD2F
:1038100058485949096888470121554880F80C11D2
:10382000002180F80D11B0F80A11A0F8081100214C
:1038300052A02FF009F800BF4D4890F80D01002864
:10384000FAD00020009064E04948B0F80811083030
:10385000405C0D2805D19DF8000010B901200090B2
:1038600047E04348B0F808110830405C0A2806D108
:103870009DF80000012802D10220009039E03C4868
:10388000B0F808110830405C4F2806D19DF80000C0
:10389000022802D1032000902BE03548B0F808112F
:1038A0000830405C4B2806D19DF80000032802D167
:1038B000042000901DE02E48B0F808110830405C4C
:1038C0000D2806D19DF80000042802D105200090A3
:1038D0000FE02748B0F808110830405C0A2806D1EC
:1038E0009DF80000052802D10620009001E0FF208D
:1038F00000901F48B0F80801401C81B21C48A0F895
:103900000811B0F80801FF2803DD00211848A0F8CD
:1039100008111748B0F80811B0F80A01814203D025
:103920009DF8000006288FDB9DF80000062819D1BD
:10393000154811490968884700BF0D4890F80D01E6
:103940000028FAD000210A4880F80C1180F80D11E7
:10395000A0F80811A0F80A110020054981F86C03AD
:10396000029001E0012002909DF808004EE700005F
:10397000EC060020400D03003C00002041542B5277
:1039800045424F4F540000008038010030B58DB0E3
:1039900005460C46202105A8FCF74CFC00200490AD
:1039A00003900290E84890F86C0310B901200DB024
:1039B00030BD002D6FD141F27070E4490880E448B9
:1039C000E449096888470121DF4880F80C1100218B
:1039D00080F80D11B0F80A11A0F808110021DEA03E
:1039E0002EF032FF00BFD84890F80D010028FAD021
:1039F00040F6B830D549088000200190B2E0D248A6
:103A0000B0F808110830405C0D2805D19DF804007D
:103A100010B90120019095E0CB48B0F808110830AA
:103A2000405C0A2808D19DF80400012804D1022036
:103A300001900020049085E09DF8040002281CD12C
:103A4000C148B0F808110830405C0D2802D10320AD
:103A5000019077E0BC48B0F808110830405CC149DB
:103A6000BDF810208854BDF81000401C80B20490AE
:103A70000020BDF81020885464E0B348B0F8081165
:103A80000830405C0A2807D19DF80400032803D1C0
:103A90000420019056E099E0AB48B0F808110830D6
:103AA000405C0D2806D19DF80400042802D10520B1
:103AB000019047E0A448B0F808110830405C0A289B
:103AC00006D19DF80400052802D10620019039E0B6
:103AD0009D48B0F808110830405C4F2806D19DF889
:103AE0000400062802D1072001902BE09648B0F888
:103AF00008110830405C4B2806D19DF804000728C7
:103B000002D1082001901DE08F48B0F8081108305C
:103B1000405C0D2806D19DF80400082802D1092038
:103B200001900FE08848B0F808110830405C0A287E
:103B300006D19DF80400092802D10A20019001E075
:103B4000FF2001908048B0F80801401C81B27E48F7
:103B5000A0F80811B0F80801FF2803DD00217A4819
:103B6000A0F808117848B0F80811B0F80A018142AD
:103B700004D09DF804000A28FFF641AF9DF8040028
:103B80000A2820D1082278A1764802F041F9B8B974
:103B9000002004900CE07349BDF810000830085C68
:103BA000BDF810106054BDF81000401C80B20490A5
:103BB000BDF810002028EEDB002084F8200004E08F
:103BC0000120039001E001200390B9E069A105A85C
:103BD000FCF75CFB20788DF81E0060788DF81F00E4
:103BE000A0788DF82000E0788DF8210020798DF8FC
:103BF000220060798DF82300A0798DF82400E07907
:103C00008DF82500207A8DF82600607A8DF827003F
:103C10004F4850490968884701214B4880F80C11EA
:103C2000002180F80D11B0F80A11A0F80811142134
:103C300005A82EF009FE00BF434890F80D010028AA
:103C4000FAD0002001905DE03F48B0F8081108303C
:103C5000405C0D2805D19DF8040010B901200190A9
:103C600040E03948B0F808110830405C0A2808D113
:103C70009DF80400012804D1022001900020049046
:103C800030E09DF8040002281CD12F48B0F808113C
:103C90000830405C0D2802D10320019022E02A4820
:103CA000B0F808110830405C2E49BDF81020885447
:103CB000BDF81000401C80B204900020BDF8102018
:103CC00088540FE02048B0F808110830405C0A28FA
:103CD00006D19DF80400032802D10420019001E0E0
:103CE000FF2001901848B0F80801401C81B2164826
:103CF000A0F80811B0F80801FF2803DD00211248E0
:103D0000A0F808111048B0F80811B0F80A01814273
:103D100003D09DF804000A2896DB9DF804000428CF
:103D20000BD1022216A10F4802F072F810B9002040
:103D3000039004E00120039001E00120039000BF04
:103D40009DF80C0033E60000EC0600207400002013
:103D5000803801003C00002041542B4E4455554909
:103D6000440000004D2000202B4E44555549443D51
:103D70000000000041542B4E44555549443D00007D
:103D80004F4B000008B500200090204890F80D012E
:103D9000012837D100211D4880F80D11B0F80A0123
:103DA000132822D11948807A4E281ED11748C07A8C
:103DB00061281AD11548007B6E2816D11348407B24
:103DC000472812D11148807B75280ED10F48C07B3F
:103DD00061280AD10D48007C6E2806D10B48407C32
:103DE000672802D10120009006E00848B0F80A01D7
:103DF000052801DD0220009000210448A0F80811E8
:103E0000A0F80A119DF8000008BD0000EC06002093
:103E100010B52D482D4908602D482E4908602E48C0
:103E20002E4908602E482F4908602F482F49086006
:103E30002F483049086030483049086030483149DF
:103E400008603148314908603148324908603248D9
:103E500032490860324833490860334833490860C2
:103E60003348344908603448344908603448354997
:103E70000860354835490860354836490860364895
:103E8000364908602B4800680088354908802B486F
:103E900000680078334908702A4800680078324981
:103EA000087000F063F8FDF765FF1448006880476C
:103EB0000A48006880470B48006880474FF4E130AB
:103EC00002490968884710BD0D4103082000002001
:103ED000F540030824000020994003082800002032
:103EE000C54103082C000020B14103083000002028
:103EF00059410308340000203D4E030838000020DB
:103F0000ED4E03083C000020514F03084000002004
:103F1000694F030844000020DD4E030848000020DC
:103F2000253902084C0000204D5E0008500000209A
:103F300006000020540000200A0000205800002045
:103F40000B0000205C0000200C000020600000201E
:103F500010000020640000201100002068000020F4
:103F60006E00002070000020710000203220FE4909
:103F70000880002088800021FB48816001730020B8
:103F8000F94908820021F84841828182C1820220D9
:103F9000F549087688764FF4AF51F348C183002184
:103FA000018440F68C21418444F620618184002004
:103FB000ED49C8846421EC4880F82810EB48EA49B0
:103FC000C862EB49E84801637F2180F8351080F82A
:103FD0003610002180F8371080F838100120E249AF
:103FE00081F83A000121E04880F83B1081874FF4C6
:103FF0004861C1870420DC4981F840000020A1F815
:1040000042004FF4B471D848A0F84410642180F8FD
:104010004610082180F84710022180F8481001213D
:1040200080F849104FF47A71A0F84A10322180F8D4
:104030004C10282180F84D10322180F84E10880154
:10404000C949A1F850004FF4AF51C748A0F8521029
:104050000021A0F85410082180F85610022180F8A1
:104060005710012180F858104FF47A71A0F85A10B7
:10407000322180F85C10282180F85D10322180F810
:104080005E100A20B849A1F860000121B64880F806
:1040900062104FF4AF51A0F864100021A0F8661030
:1040A000A0F86810642180F86A10082180F86B106D
:1040B000022180F86C10012180F86D104FF47A71A4
:1040C000A0F86E10322180F87010282180F871104D
:1040D000322180F872100120A34981F874004FF456
:1040E000AF51A148A0F876100021A0F87810A0F8F0
:1040F0007A10642180F87C104FF47A71A0F87E1059
:10410000322180F88010012180F881100120964929
:1041100081F882004FF4AF519348A0F88410002139
:10412000A0F88610A0F88810642180F88A10282151
:1041300080F88B1001208C4981F88C004FF4AF512E
:104140008948A0F88E10022180F89010062180F88E
:104150009110032180F89210062180F8931001211C
:1041600080F894100420804981F8980002217E484C
:1041700080F89910322180F89A1001207A4981F84C
:104180009C004FF4AF517848A0F89E100021A0F891
:10419000A010A0F8A210642180F8A4104FF41671AA
:1041A000A0F8A6103C21A0F8A810322180F8AA108F
:1041B0000021A0F8AC104FF4AF506B49A1F8AE004D
:1041C00000216948A0F8B010322180F8B210012017
:1041D000654981F8B4004FF4AF516348A0F8B610B8
:1041E0000021A0F8B810A0F8BA10642180F8BC1023
:1041F0004FF41671A0F8BE103C21A0F8C010322177
:1042000080F8C2100021A0F8C410012180F8C61067
:104210000720554981F8C8000921534880F8C91082
:10422000032180F8CA10322180F8CB100021A0F8B9
:10423000CC101E21A0F8CE103C21A0F8D0105A219D
:10424000A0F8D2107821A0F8D4109621A0F8D610AA
:10425000642180F8D8100120434981F8E0004FF430
:10426000AF514148A0F8E2100021A0F8E410A0F8F6
:10427000E610642180F8E810322180F8E91080F817
:10428000EA100720384981F8EC000921364880F807
:10429000ED10032180F8EE10322180F8EF1080F845
:1042A000F0104FF4AF51A0F8F2100021A0F8F41074
:1042B0004FF41671A0F8F6100021A0F8F8101E2196
:1042C000A0F8FA103C21A0F8FC105A21A0F8FE102A
:1042D0007821A0F800119621A0F80211642180F83D
:1042E00004110120204981F80C0101211E4880F8A9
:1042F0000D114FF4AF51A0F80E110021A0F81011CC
:10430000A0F81211642180F81411322180F81511DF
:1043100080F816110120144981F81A014FF4AF51A9
:104320001148A0F81C110021A0F81E11A0F82011BE
:10433000642180F82211322180F823110021A0F895
:104340002411012180F826111320074981F8280142
:104350000020A1F82A014FF4B4710348A0F82C11F1
:10436000642180F82E1105E0C00A0020D80905005C
:1043700040330500082180F82F11022180F8301108
:10438000012180F831114FF47A71A0F832113221F5
:1043900080F83411282180F83511322180F8361147
:1043A000012180F83711052180F83811012180F8AA
:1043B000391180F83A11322180F83B118801FE4909
:1043C000A1F83C014FF4AF51FB48A0F83E11002189
:1043D000A0F84011082180F84211022180F8431111
:1043E000012180F844114FF47A71A0F8461132216E
:1043F00080F84811282180F84911322180F84A11AB
:10440000012180F84B11052180F84C11012180F821
:104410004D1180F84E11322180F84F110020E649ED
:10442000A1F850010821E44880F85211022180F8D7
:104430005311012180F854114FF4AF51A0F85611D7
:104440000021A0F85811A0F85A11642180F85C11DD
:10445000012180F85D114FF47A71A0F85E113221CC
:1044600080F86011282180F86111322180F86211F2
:10447000012180F86311052180F86411012180F881
:10448000651180F86611322180F867114FF47A7057
:10449000C949A1F868013221C74880F86A11012191
:1044A00080F86B1180F86C114FF4AF51A0F86E11C9
:1044B0000021A0F87011A0F87211642180F8741125
:1044C000012180F87511052180F87611012180F80D
:1044D000771180F87811322180F879112820B649B7
:1044E00081F87A010121B44880F87B114FF4AF5173
:1044F000A0F87C110021A0F87E11A0F880116421A1
:1045000080F88211012180F88311052180F884113F
:10451000012180F8851180F88611322180F88711F9
:104520000120A54981F888014FF4AF51A248A0F8B5
:104530008A110021A0F88C11A0F88E11642180F856
:104540009011022180F89111012180F8921100212F
:10455000A0F89411012180F896114FF4AF51A0F802
:1045600098110021A0F89A11A0F89C11642180F8FC
:104570009E11322180F89F11012180F8A01180F84E
:10458000A11180F8A2114FF47A71A0F8A411322180
:1045900080F8A611282180F8A711322180F8A811EF
:1045A0003220854981F8AA010121834880F8AB11A6
:1045B00080F8AC1180F8AD114FF47A71A0F8AE110B
:1045C000322180F8B011282180F8B111322180F811
:1045D000B211022180F8B311012180F8C21100212B
:1045E000A0F8C411012180F8C6114FF4AF51A0F812
:1045F000C8110021A0F8CA11A0F8CC11642180F8DC
:10460000CE11022180F8D0110021A0F8D211012191
:1046100080F8D4114FF4AF51A0F8D6110021A0F8C2
:10462000D811A0F8DA11642180F8DC11032180F898
:10463000DE110021A0F8E011012180F8E2114FF411
:10464000AF51A0F8E4110021A0F8E611A0F8E8119C
:10465000642180F8EA11042180F8EC110021A0F80F
:10466000EE11012180F8F0114FF4AF51A0F8F211D2
:104670000021A0F8F411A0F8F611642180F8F811D7
:1046800005204D4981F8FA0101214B4880F8FB11C2
:104690004FF4AF51A0F8FC110021A0F8FE11A0F8D2
:1046A0000012642180F802124FF41671A0F804126F
:1046B0003C21A0F80612322180F80812012180F86E
:1046C000091280F80A1280F81E120021A0F82012A8
:1046D000012180F822124FF4AF51A0F824120021DA
:1046E000A0F82612A0F82812642180F82A120221CC
:1046F00080F82B1280F82C12062180F82D1232211E
:1047000080F82E12022180F830120021A0F8321217
:10471000012180F834124FF4AF51A0F83612002175
:10472000A0F83812A0F83A12642180F83C12022155
:1047300080F83D1280F83E12062180F83F123221A7
:1047400080F84012032180F842120021A0F84412A0
:10475000012180F846124FF4AF51A0F84812002111
:10476000A0F84A12A0F84C12642180F84E120221DF
:1047700080F84F1280F85012062180F85112322131
:1047800080F85212042180F854120021A0F8561229
:10479000012180F858124FF4AF51A0F85A120021AD
:1047A000A0F85C12A0F85E12642180F86012022169
:1047B00080F8611202E00000C00A002080F8621256
:1047C000062180F86312322180F864121B20FE4912
:1047D00081F866020020A1F868024FF4B471FA482B
:1047E000A0F86A12642180F86C12082180F86D121A
:1047F000022180F86E12012180F86F124FF47A7155
:10480000A0F87012322180F87212282180F87312F9
:10481000322180F87412012180F87512052180F888
:104820007612012180F8771280F87812322180F810
:1048300079128801E449A1F87A024FF4AF51E248B5
:10484000A0F87C120021A0F87E12082180F88012C6
:10485000022180F88112012180F882124FF47A71CE
:10486000A0F88412322180F88612282180F887125D
:10487000322180F88812012180F88912052180F800
:104880008A12012180F88B1280F88C12322180F874
:104890008D120020CC49A1F88E020821CA4880F868
:1048A0009012022180F89112012180F892124FF4A7
:1048B000AF51A0F894120021A0F89612A0F8981217
:1048C000642180F89A12012180F89B124FF47A71CA
:1048D000A0F89C12322180F89E12282180F89F12A5
:1048E000322180F8A012012180F8A112052180F860
:1048F000A212012180F8A31280F8A412322180F8BC
:10490000A5120020B04981F8A6020121AE4880F826
:10491000A71280F8A8124FF47A71A0F8AA123221D7
:1049200080F8AC12282180F8AD12322180F8AE1246
:10493000042180F8AF12012180F8BE120021A0F8F6
:10494000C012012180F8C2124FF4AF51A0F8C41276
:104950000021A0F8C612A0F8C812642180F8CA127B
:10496000022180F8CC120021A0F8CE12012180F89B
:10497000D0124FF4AF51A0F8D2120021A0F8D412F7
:10498000A0F8D612642180F8D812032180F8DA1238
:104990000021A0F8DC12012180F8DE124FF4AF51A3
:1049A000A0F8E0120021A0F8E212A0F8E4126421BD
:1049B00080F8E612042180F8E8120021A0F8DC1249
:1049C000012180F8EC124FF4AF51A0F8EE12002153
:1049D000A0F8F012A0F8F212642180F8F41232204C
:1049E000794981F8F6023221774880F8F7120021E0
:1049F00080F8F812012180F8F91280F8FA124FF4C9
:104A00007A71A0F8FC12322180F8FE12282180F879
:104A1000FF12322180F80013042180F801130121D4
:104A2000A0F8121380F814134FF4AF51A0F8161326
:104A30000021A0F81813A0F81A13642180F81C13A1
:104A40000221A0F82013012180F822134FF4AF5166
:104A5000A0F824130021A0F82613A0F8281364213D
:104A600080F82A130321A0F82E13012180F83013B7
:104A70004FF4AF51A0F832130021A0F83413A0F87E
:104A80003613642180F838130421A0F83C13012167
:104A900080F83E134FF4AF51A0F840130021A0F866
:104AA0004213A0F84413642180F8461301204649BC
:104AB00081F848034FF4AF514348A0F84A1300214E
:104AC000A0F84C13A0F84E13642180F85013022173
:104AD00080F85113012180F852130021A0F85413DB
:104AE000012180F856134FF4AF51A0F8581300215C
:104AF000A0F85A13A0F85C13642180F85E133221E9
:104B000080F85F13012180F8601380F8611380F84A
:104B100062134FF47A71A0F86413322180F866139F
:104B2000282180F86713322180F868133220264943
:104B300081F86A030121244880F86B1380F86C1314
:104B400080F86D134FF47A71A0F86E13322180F85B
:104B50007013282180F87113322180F87213042118
:104B600080F87313012180F882130021A0F88413C8
:104B7000012180F886134FF4AF51A0F8881300216B
:104B8000A0F88A13A0F88C13642180F88E130221F8
:104B900080F890130021A0F89213012180F894135B
:104BA0004FF4AF51A0F896130021A0F89813A0F885
:104BB0009A13642180F89C13032180F89E1300212E
:104BC000A0F8A013012101E0C00A002080F8A21380
:104BD0004FF4AF51A0F8A4130021A0F8A613A0F839
:104BE000A813642180F8AA13042180F8AC130021D3
:104BF000A0F8AE13012180F8B0134FF4AF51A0F824
:104C0000B2130021A0F8B413A0F8B613642180F801
:104C1000B81332207E4981F8BA0300217C4880F81D
:104C2000BB13012180F8BC1380F8BD134FF47A71D7
:104C3000A0F8BE13322180F8C013282180F8C113D8
:104C4000322180F8C213022180F8C313012180F8B9
:104C5000D2130021A0F8D413012180F8D6134FF409
:104C6000AF51A0F8D8130021A0F8DA13A0F8DC1394
:104C7000642180F8DE13022180F8E0130021A0F8FF
:104C8000E213012180F8E4134FF4AF51A0F8E613CA
:104C90000021A0F8E813A0F8EA13642180F8EC13CF
:104CA00032205B4981F8EE030121594880F8EF1367
:104CB00080F8F0134FF47A71A0F8F213322180F8E3
:104CC000F413282180F8F513322180F8F61305201B
:104CD0004F4981F8F80301214D4880F8F9134FF44A
:104CE000AF51A0F8FA130021A0F8FC13A0F8FE13AE
:104CF000642180F800144FF41671A0F802143C21CE
:104D0000A0F80414322180F80614012180F8081458
:104D100080F81C140021A0F81E14012180F8201432
:104D20004FF4AF51A0F822140021A0F82414A0F8E9
:104D30002614642180F82814022180F8291480F8B0
:104D40002A14062180F82B14322180F82C14022119
:104D500080F82E140021A0F83014012180F83214BC
:104D60004FF4AF51A0F834140021A0F83614A0F885
:104D70003814642180F83A14022180F83B1480F83A
:104D80003C14062180F83D14322180F83E140321A2
:104D900080F840140021A0F84214012180F8441446
:104DA0004FF4AF51A0F846140021A0F84814A0F821
:104DB0004A14642180F84C14022180F84D1480F8C4
:104DC0004E14062180F84F14322180F8501404212B
:104DD00080F852140021A0F85414012180F85614D0
:104DE0004FF4AF51A0F858140021A0F85A14A0F8BD
:104DF0005C14642180F85E14022180F85F1480F84E
:104E00006014062180F86114322180F86214704722
:104E1000C00A002000210448A0F80811A0F80A11D7
:104E200080F80D1170470000EC06002010B500243A
:104E300008480078012803D1FCF78EF8044606E004
:104E400004480078022802D1FCF768F9044620469D
:104E500010BD0000EC06002038B505460C460020C9
:104E6000009048480078012868D1464890F8C0036F
:104E700045494872434890F8C1038872414890F808
:104E8000C203C8723F4890F8C30308732C204873CC
:104E9000601C642820DB642190FBF1F030303A493B
:104EA0008873601C0A2190FBF1F090FBF1F201FB8A
:104EB000120030303449C873601C0A2190FBF1F2B3
:104EC00001FB12003030304908742C204874C12096
:104ED00088741320009027E0601C0A2815DB0A2143
:104EE00090FBF1F0303028498873601C0A2190FB58
:104EF000F1F201FB120030302349C8732C200874F2
:104F0000C1204874122000900EE0601C0A2190FB22
:104F1000F1F201FB120030301B4988732C20C8735A
:104F2000C120087411200090BDF8001016482DF023
:104F30006DFC214628462DF087FC21E011480078C1
:104F400002281DD13A201149096888473A200F49A3
:104F50000968884700200D490968884700200090AB
:104F60000AE0BDF80010685C084909688847BDF888
:104F70000000401C80B20090BDF80000A042F0DBB1
:104F800038BD0000EC060020760000203400002030
:104F900030B58BB000200A900990079008900590DA
:104FA000069004900390029000240190F748007846
:104FB00001280CD1F64800680068F6490968401AD3
:104FC000642804D90020F1490870FFF723FFF24854
:104FD0000078D0B9FEF7D6FE0446012C05D1EE4983
:104FE0000870EEA02EF038FAABE2022CFCD10220C1
:104FF000E9490870FFF70EFF4FF46140EE49096878
:105000008847EEA02EF028FA9BE2E34890F86C0364
:1050100001287CD1E04890F80D01012810D1DE482C
:10502000B0F80A01C1B2DC48083001F0A7FD0A90CF
:105030009DF8280028B90020D4490870FFF7EAFE3F
:1050400075E09DF82800012865D10020CF4908703F
:105050000021D148A0F88E1100F5C8700090CE480C
:10506000B0F80A01C1B2DC4BA3F18002A2F5837053
:10507000FCF79AFEFFF7CEFEC74890F89001012892
:1050800055D10021C44880F89011D4A02EF0E4F945
:10509000C148B0F88E1100F2122300F5C97200F574
:1050A0008770D44D2D68A84709909DF8240030B929
:1050B0000120D1490870D1A02EF0CEF902E0D6A08F
:1050C0002EF0CAF9B448B0F88E11D9A02EF0C4F968
:1050D000DFA02EF0C1F9002003900CE0BE4880381C
:1050E0009DF80C20815CDDA02EF0B6F99DF80C0037
:1050F000401CC0B20390A848B0F88E019DF80C1077
:105100008842EBDCB3A02EF0A7F9D6A000E012E2B3
:105110002EF0A2F90BE09DF82800022807D101200B
:105120009A4908709A48006800689A4908609A4845
:10513000B0F81202D0B3984890F81402B0BB022124
:10514000954880F81412002180F81512B0F8121258
:10515000A0F84213002003900DE09F48001D9DF829
:105160000C10415C84309DF80C2081549DF80C009B
:10517000401CC0B203908848B0F812029DF80C1091
:105180008842EADC0020BE4908808348B0F8120259
:10519000BC49088000218048A0F812120120BA49B9
:1051A00008707B4800680068B84908607A4890F841
:1051B0001402022837D1784890F815020028F9D156
:1051C0007548B0F8420378BB0021734880F8141288
:1051D000AFA02EF041F90020039018E07E488830FF
:1051E0009DF80C20815C9DA02EF036F99DF80C00F6
:1051F000401C0A2190FBF1F201FB120010B975A0CE
:105200002EF02AF99DF80C00401CC0B203909DF8C6
:105210000C009C4909888842E0DB6EA02EF01CF946
:105220006CA02EF019F998E0FFE75B4800780128A0
:105230002BD15948B0F84203802805DC5648B0F815
:105240004203C0B2019001E08020019062498831A0
:105250008B4A128888189DF80410FFF7FDFD4E4810
:10526000B0F842039DF80410401A81B24A48A0F8F1
:105270004213834800889DF8041008448049088040
:105280000121454880F8151267E04348007802285C
:1052900063D17D48007801282CD13D480068006822
:1052A0007A49096888420AD3394800680068774912
:1052B0000968401AB0F57A7F01D3012000E0002090
:1052C000334909680968714A126891420CD26F49E2
:1052D0000968C1F1FF312E4A126812681144B1F514
:1052E0007A7F01D3012100E00021084310B10020A2
:1052F000654908706448007878BB2748B0F84203D5
:10530000112805DC2448B0F84203C0B2019001E046
:10531000112001904FF47A706849096888472E4936
:105320008831574A128888189DF80410FFF794FDB9
:105330001948B0F842039DF80410401A81B216488B
:10534000A0F842134E4800889DF8041008444C49C8
:1053500008800121104880F815125948006800881B
:105360005849098888420ED00B48007801280BD193
:10537000094890F86E0338B9FBF7EEFD5048006815
:10538000008850490880DCE09EE000009A00002080
:10539000600000209C000020EC0600200D0A3C2D3F
:1053A00020424C45204D6F64756C206973203A2073
:1053B0004653430D0A000000200000200D0A3C2D3A
:1053C00020424C45204D6F64756C206973203A2053
:1053D000555345520D0A00007A0800202A2A2A2A2D
:1053E0002A2A2A2A2A2A2A2A2A2A2A2A2A2A2A2A1D
:1053F0000D0A000050000020720000200D0A3C2D14
:1054000020424C45206465636F6465207375636357
:105410006573732E0D0A00003C2D20424C4520641C
:1054200065636F6465206661696C652E0D0A000016
:105430003C2D20424C452072656365697665206489
:105440006174612025642062797465732E0D0A00F1
:105450003C2D20446174612069733A002530325834
:10546000200000002A2A2A2A2A2A2A2A2A2A2A2A24
:105470002A2A2A2A2A2A2A2A0D0A0D0A00000000AE
:10548000A0000020A2000020A4000020A80000200E
:105490003C2D20424C45206D657373616765207318
:1054A000656E6420636F6D706C6574652C2064613B
:1054B00074612069733A0D0A000000004C0000205E
:1054C000540000206E0000201F480078022838D1C8
:1054D0001D4890F86D03012833D000F0ABFB98B95C
:1054E0000120194981F8D10301F29F302DF072FF9C
:1054F000164800F019FB18B915A02DF0ADFF06E015
:105500001AA02DF0A9FF02E01FA02DF0A5FF00F0CA
:1055100003FC38B900200C4981F8D10321A02DF0FB
:105520009BFF02E026A02DF097FF2C480068008822
:105530002B49088005E0044890F86C0308B9FBF794
:1055400069FF0BB030BD0000EC0600208B0A002084
:105550003C2D205365742075736572206E616D65F6
:1055600020737563636573730D0A00003C2D20532F
:1055700065742075736572206E616D652066616962
:105580006C7572650D0A00003C2D20526561642027
:1055900075736572206E616D65206661696C7572E8
:1055A000650D0A003C2D204F7574204154206D6F0D
:1055B000646520737563636573730D0A00000000F2
:1055C0003C2D204F7574204154206D6F646520661A
:1055D00061696C7572650D0A0000000054000020BE
:1055E0006E00002010B50021044880F80C11012144
:1055F00080F80D1102480068804710BDEC060020BD
:105600004000002010B50446154890F80C0148B938
:10561000144800881449096888470121104880F817
:105620000C1107E00F4800881049096888471048A6
:10563000006880470A48B0F80A1108304454083816
:10564000B0F80A01401C81B20548A0F80A11B0F870
:105650000A01FF2803DD00210148A0F80A1110BD4E
:10566000EC060020740000203C00002044000020D4
:105670004800002038B5044601200090424890F8C8
:10568000D10308B9012038BDFFF7C4FB43F69820C9
:105690003E490968884701213B4880F80C110021E8
:1056A00080F80D1108213AA02DF0B0F80D203B49EB
:1056B000096888470A2039490968884700BF324885
:1056C00090F80D010028FAD000212F4880F80D1124
:1056D000007A0D2855D12C48407A0A2851D12A4801
:1056E000C07A4D284DD12848007B4F2849D1264803
:1056F000407B442845D12448807B452841D122481D
:10570000B0F80A01001F20490831085C4F2838D141
:105710001D48B0F80A01C01E085C4B2831D100209A
:1057200000901948007C4D2806D11748407C652818
:1057300002D10120207024E01348007C4D2806D1BE
:105740001148407C612802D10420207019E00E48E5
:10575000007C532806D10C48407C6C2802D10320E1
:1057600020700EE00848007C692806D10648407C7D
:10577000422802D10520207003E000202070012083
:1057800000909DF800007EE7EC0600203C00002021
:1057900041542B4D4F44453F000000003400002091
:1057A0001CB504460020019001200090384890F874
:1057B000D10308B901201CBDFFF72CFB44F6206083
:1057C0003449096888470121314880F80C110021CB
:1057D00080F80D11082130A02DF018F80D20314966
:1057E000096888470A202F490968884700BF284868
:1057F00090F80D010028FAD00021254880F80D11FD
:10580000007A0D2841D12248407A0A283DD120480B
:10581000C07A4E2839D11E48007B412835D11C481A
:10582000407B4D2831D11A48807B45282DD118481E
:10583000B0F80A01001F16490831085C4F2824D12E
:105840001348B0F80A01C01E085C4B281DD1002087
:1058500001900DE00E4808309DF804100831405CBE
:105860009DF8041060549DF80400401CC0B20190E3
:10587000074808309DF804100831405C0D28E9D134
:1058800000209DF80410605400909DF8000092E7FD
:10589000EC0600203C00002041542B4E414D453F7A
:1058A000000000003400002038B5044601200090BC
:1058B000344890F8D10308B9012038BDFFF7AAFA9F
:1058C0004CF2503030490968884701212D4880F852
:1058D0000C11002180F80D1108212CA02CF096FF4E
:1058E0000D202D49096888470A202B4909688847F7
:1058F00000BF244890F80D010028FAD0002121486B
:1059000080F80D11007A0D2838D11E48407A0A28F7
:1059100034D11C48C07A502830D11A48007B412825
:105920002CD11848407B532828D11648807B532817
:1059300024D11448B0F80A01001F12490831085C4C
:105940004F281BD10F48B0F80A01C01E085C4B2835
:1059500014D10C48007C20700A48407C60700948D3
:10596000807CA0700748C07CE0700648007D2071F4
:105970000448407D60710020A07100909DF80000F7
:105980009BE70000EC0600203C00002041542B5017
:105990004153533F00000000340000201FB504466F
:1059A000012003905C4A07CA8DE807005B4890F825
:1059B000D10310B9012004B010BD042C01D1012085
:1059C00000E00020032C01D1012100E00021084368
:1059D000052C01D1012100E000210843012C01D157
:1059E000012100E00021084308B90120E3E7012C70
:1059F00003D146208DF8080010E0042C03D14D207F
:105A00008DF808000AE0032C03D153208DF808001C
:105A100004E0052C02D142208DF8080000208DF80A
:105A20000900FFF7F7F94CF250303D490968884703
:105A300001213A4880F80C11002180F80D1109214C
:105A400068462CF0E3FE0D203649096888470A2095
:105A500034490968884700BF304890F80D01002894
:105A6000FAD000212D4880F80D11007A0D284ED172
:105A70002A48407A0A284AD12848C07A4D2846D177
:105A80002648007B4F2842D12448407B44283ED101
:105A90002248807B45283AD12048B0F80A01001FEF
:105AA0001E490831085C4F2831D11C48B0F80A0162
:105AB000C01E085C4B282AD11848007C4D2806D10E
:105AC0001648407C652802D1002003901FE013484F
:105AD000007C4D2806D11148407C612802D100206D
